:020000040800F2
:10000000C01F0220713D0008F3A100085D3D0008FB
:100010005D3D00085D3D00085D3D000800000000FA
:10002000000000000000000000000000B53D0008D6
:100030005D3D0008000000006D3F00088960000879
:10004000E93F0008E93F0008E93F0008E93F0008F0
:10005000E93F0008E93F0008E93F0008E93F0008E0
:10006000E93F0008E93F0008E93F0008E93F0008D0
:10007000E93F0008E93F0008E93F0008E93F0008C0
:10008000E93F0008E93F0008E93F0008E93F0008B0
:10009000E93F0008E93F0008E93F0008E93F0008A0
:1000A000E93F0008E93F0008E93F0008E93F000890
:1000B000E93F0008E93F0008E93F0008E93F000880
:1000C000E93F0008E93F0008E93F0008E93F000870
:1000D000E93F0008E93F0008E93F0008E93F000860
:1000E000E93F0008E93F0008E93F0008E93F000850
:1000F000E93F0008E93F0008E93F0008E93F000840
:10010000E93F0008E93F0008E93F0008E93F00082F
:10011000E93F0008E93F0008E93F0008E93F00081F
:10012000E93F0008E93F0008E93F0008E93F00080F
:10013000E93F0008E93F0008E93F0008E93F0008FF
:10014000E93F0008E93F0008E93F0008E93F0008EF
:10015000E93F0008E93F0008E93F0008E93F0008DF
:10016000E93F0008E93F0008E93F0008E93F0008CF
:10017000E93F0008E93F0008E93F0008E93F0008BF
:04018000E93F00084B
:1001880080F0004002E000BF81F0004142001FBF44
:100198005FEA410392EA030F7FEA226C7FEA236C4D
:1001A8006AD04FEA1262D2EB1363C1BFD218414042
:1001B80048404140B8BF5B42192B88BF704710F0D8
:1001C800004F40F4000020F07F4018BF404211F07B
:1001D800004F41F4000121F07F4118BF494292EAE3
:1001E800030F3FD0A2F1010241FA03FC10EB0C000F
:1001F800C3F1200301FA03F100F0004302D549429C
:1002080060EB4000B0F5000F13D3B0F1807F06D348
:1002180040084FEA310102F10102FE2A51D2B1F140
:10022800004F40EBC25008BF20F0010040EA030035
:100238007047490040EB0000013A28BFB0F5000FB5
:10024800EDD2B0FA80FCACF1080CB2EB0C0200FA6B
:100258000CF0AABF00EBC25052421843BCBFD040BA
:100268001843704792F0000F81F4000106BF80F434
:1002780000000132013BB5E74FEA41037FEA226CF7
:1002880018BF7FEA236C21D092EA030F04D092F0C2
:10029800000F08BF0846704790EA010F1CBF0020F6
:1002A800704712F07F4F04D1400028BF40F0004053
:1002B800704712F100723CBF00F50000704700F073
:1002C800004343F0FE4040F4000070477FEA22629A
:1002D80016BF08467FEA23630146420206BF5FEA6B
:1002E800412390EA010F40F4800070474FF000036B
:1002F80004E000BF10F0004348BF40425FEA000C32
:1003080008BF704743F0964301464FF000001CE0D9
:1003180050EA010208BF70474FF000030AE000BF2F
:1003280050EA010208BF704711F0004302D540426D
:1003380061EB41015FEA010C02BF844601460020DF
:1003480043F0B64308BFA3F18053A3F50003BCFAFA
:100358008CF2083AA3EBC25310DB01FA02FC6344A7
:1003680000FA02FCC2F12002BCF1004F20FA02F2AE
:1003780043EB020008BF20F00100704702F12002A1
:1003880001FA02FCC2F1200250EA4C0021FA02F202
:1003980043EB020008BF20EADC7070474FF0FF0C07
:1003A8001CEAD0521EBF1CEAD15392EA0C0F93EA02
:1003B8000C0F6FD01A4480EA010C400218BF5FEAA4
:1003C80041211ED04FF0006343EA501043EA511117
:1003D800A0FB01310CF00040B1F5000F3EBF490011
:1003E80041EAD3715B0040EA010062F17F02FD2A15
:1003F8001DD8B3F1004F40EBC25008BF20F00100F8
:10040800704790F0000F0CF0004C08BF49024CEA0E
:10041800502040EA51207F3AC2BFD2F1FF0340EAA0
:10042800C250704740F400004FF00003013A5DDC11
:1004380012F1190FDCBF00F000407047C2F1000252
:10044800410021FA02F1C2F1200200FA02FC5FEA3F
:10045800310040F1000053EA4C0308BF20EADC7089
:10046800704792F0000F00F0004C02BF400010F4FB
:10047800000F013AF9D040EA0C0093F0000F01F0A8
:10048800004C02BF490011F4000F013BF9D041EACA
:100498000C018FE70CEAD15392EA0C0F18BF93EACC
:1004A8000C0F0AD030F0004C18BF31F0004CD8D1F6
:1004B80080EA010000F00040704790F0000F17BF7D
:1004C80090F0004F084691F0000F91F0004F14D0C3
:1004D80092EA0C0F01D142020FD193EA0C0F03D11B
:1004E8004B0218BF084608D180EA010000F000401E
:1004F80040F0FE4040F40000704740F0FE4040F4F9
:10050800400070474FF0FF0C1CEAD0521EBF1CEA97
:10051800D15392EA0C0F93EA0C0F69D0A2EB0302B5
:1005280080EA010C49024FEA402037D04FF080534F
:1005380043EA111143EA10130CF000408B4238BF14
:100548005B0042F17D024FF4000C8B4224BF5B1A22
:1005580040EA0C00B3EB510F24BFA3EB510340EA70
:100568005C00B3EB910F24BFA3EB910340EA9C001E
:10057800B3EBD10F24BFA3EBD10340EADC001B018E
:1005880018BF5FEA1C1CE0D1FD2A3FF650AF8B4232
:1005980040EBC25008BF20F0010070470CF0004C3F
:1005A8004CEA50207F32C2BFD2F1FF0340EAC2506A
:1005B800704740F400004FF00003013A37E792F02B
:1005C800000F00F0004C02BF400010F4000F013A89
:1005D800F9D040EA0C0093F0000F01F0004C02BF84
:1005E800490011F4000F013BF9D041EA0C0195E7ED
:1005F8000CEAD15392EA0C0F08D142027FF47DAF86
:1006080093EA0C0F7FF470AF084676E793EA0C0F75
:1006180004D14B023FF44CAF08466EE730F0004C73
:1006280018BF31F0004CCAD130F000427FF45CAF03
:1006380031F000437FF43CAF5FE700BF4FF0FF3C71
:1006480006E000BF4FF0010C02E000BF4FF0010CC4
:100658004DF804CD4FEA40024FEA41037FEA226C8D
:1006680018BF7FEA236C11D001B052EA530C18BFAF
:1006780090EA010F58BFB2EB030088BFC81738BF14
:100688006FEAE17018BF40F0010070477FEA226C02
:1006980002D15FEA402C05D17FEA236CE4D15FEAFE
:1006A800412CE1D05DF8040B704700BF8446084632
:1006B8006146FFE70FB5FFF7C9FF002848BF10F1F3
:1006C800000F0FBD4DF808EDFFF7F4FF0CBF012038
:1006D80000205DF808FB00BF4DF808EDFFF7EAFFC2
:1006E80034BF012000205DF808FB00BF4DF808ED7D
:1006F800FFF7E0FF94BF012000205DF808FB00BF72
:100708004DF808EDFFF7D2FF94BF012000205DF8F7
:1007180008FB00BF4DF808EDFFF7C8FF34BF012004
:1007280000205DF808FB00BF4FEA4002B2F1FE4F1F
:100738000FD34FF09E03B3EB12620DD94FEA00239B
:1007480043F0004310F0004F23FA02F018BF404274
:1007580070474FF00000704712F1610F01D142025B
:1007680005D110F0004008BF6FF0004070474FF00F
:10077800000070477BB972B90029BEBF00204FF056
:10078800004106E008BF00281CBF6FF000414FF091
:10079800FF3000F057B8ADF1080C6DE904CE002920
:1007A80009DB002B1ADB00F069F8DDF804E0DDE96D
:1007B800022304B07047404261EB4101002B1BDB70
:1007C80000F05CF8DDF804E0DDE9022304B0404203
:1007D80061EB4101524263EB43037047524263EBC2
:1007E800430300F04BF8DDF804E0DDE9022304B030
:1007F800404261EB41017047524263EB430300F012
:100808003DF8DDF804E0DDE9022304B0524263EB71
:100818004303704753B94AB9002908BF00281CBFD1
:100828004FF0FF314FF0FF3000F00CB8ADF1080C7D
:100838006DE904CE00F022F8DDF804E0DDE90223DA
:1008480004B07047704700BF10F8012B11F8013B46
:10085800012A28BF9A42F7D0D01A7047034611F8E8
:10086800012B03F8012B002AF9D17047034613F82E
:10087800012B002AFBD1181A013870472DE9F047DF
:100888008C468E46089E154604461946002B40F0B5
:10089800D080724547D9B2FA82F74FB1C7F1200329
:1008A8000EFA07FC20FA03F3BD4043EA0C0CBC40E7
:1008B8004FEA154EA8B2BCFBFEF8230C0EFB18CC71
:1008C80008FB00F943EA0C43994528D9EB1808F1CD
:1008D800FF3204D2994502D9A8F102022B44A3EBB6
:1008E8000903A4B2B3FBFEFC0EFB1C330CFB00F0A7
:1008F80044EA0344A04214D92C190CF1FF3304D262
:10090800A04202D9ACF102032C44241A43EA024063
:100918001EB1FC40002334607360BDE8F087424696
:10092800DDE76346F1E7002A79D0B2FA82F3002BBB
:100938003FD01946C1F1200302FA01F52EFA03F25D
:100948000EFA01FE20FA03F343EA0E034FEA154EAE
:1009580000FA01F4B2FBFEFCAFB20EFB1C201A0C2D
:100968000CFB07F842EA004290455AD9AA180CF144
:10097800FF3004D2904502D9ACF102002A44A2EB20
:1009880008029BB2B2FBFEFC0EFB1C220CFB07F715
:1009980043EA02439F4246D9EB180CF1FF3204D2D6
:1009A8009F4202D9ACF102022B44DB1B42EA00420F
:1009B80002E0AEEB020301224FEA154EAFB2B3FBE1
:1009C800FEFC200C0EFB1C330CFB07F840EA03432B
:1009D80098452AD9EB180CF1FF3004D2984502D972
:1009E800ACF102002B44A3EB0803A4B2B3FBFEFC5A
:1009F8000EFB1C330CFB07F744EA0344A74216D945
:100A08002C190CF1FF3304D2A74202D9ACF102032E
:100A18002C44E41B43EA00400F46114678E71F21A7
:100A280088E76046ABE76246BFE76046DBE76346B8
:100A3800EFE7734506D916B9002108466DE7C6E900
:100A4800000EF9E7B3FA83F787B9734501D38242F9
:100A580007D8841A6EEB030301209C461EB90021B7
:100A68005BE73846FAE7C6E9004CF8E7C7F1200C1F
:100A7800BB4022FA0CF51D4320FA0CF12EFA0CF3B8
:100A88000EFA07FE41EA0E014FEA154900FA07F48B
:100A9800B3FBF9F81FFA85FE09FB18300B0C08FBAD
:100AA8000EFA43EA00439A4502FA07F240D9EB18D6
:100AB80008F1FF3004D29A4502D9A8F102002B446C
:100AC800A3EB0A0389B2B3FBF9F809FB183308FB57
:100AD8000EFE41EA03418E452CD9691808F1FF330F
:100AE80004D28E4502D9A8F10203294443EA004002
:100AF800A0FB0298A1EB0E014145CE46434602D326
:100B080006D14C4504D2B9EB020E68EB0503013857
:100B1800002EA4D0B4EB0E0261EB030101FA0CFC29
:100B280022FA07F34CEA0303F940C6E9003196E7D5
:100B38004046C5E74346D9E72DE9F047044688B063
:100B4800884617460AF06AFA0A220023FFF762FE6F
:100B5800B8F1010F06460D4607D102460B4620465E
:100B6800274908F03AFC002011E07F6825483946FB
:100B7800FFF76AFE70B139462348FFF765FE48B1B2
:100B880020463A46214908F044FC6FF0040008B0BA
:100B9800BDE8F0873046294617A3D3E90023FFF7BD
:100BA800E9FD06460D4610461946194A0023FFF787
:100BB800E1FD80460F46104619464EF66022002396
:100BC800FFF7D8FD82468946104619464FF47A72D7
:100BD8000023FFF7CFFDCDE902A9CDE90623CDE932
:100BE800040132462B460B492046CDE9008708F020
:100BF800F4FBB8E7AFF30080005C260500000000B6
:100C080072CC000883CC000886CC00088FCC000882
:100C180080EE3600A7CC000810B51749FFF7BEFBD9
:100C28004FF08841FFF7B2FA00210446FFF75EFD56
:100C3800E8B912492046FFF74FFDB0B120460F49E9
:100C4800FFF760FC0E49FFF7A9FB04460AF089FB91
:100C580050B120460AF085FB40F6FE73984208DC46
:100C680020460AF07EFB80B210BD0448E7E700206A
:100C7800E5E740F6FF70F7E7763F244300C07F447E
:100C880000F07F452DE9F04F8BB004468846994621
:100C980004928289DDF850B042F00602D0E9005A89
:100CA8004FF41670002106ABCDE9020100935146BE
:100CB80007AB284604F032F9021E2BDB079EAB680F
:100CC80008AA514628465B689847021E22DB274F30
:100CD800DDE90823A6FB0701FFF79CFD069E0590AA
:100CE800AB6808AA514628465B689847021E11DB84
:100CF800A6FB0701DDE90823FFF78CFD059BB0F58E
:100D08007A7FC8F80030049B186019D80020C9F809
:100D1800000012E012F1100F0CD1D4E90001836831
:100D28001B6903B19847594611480BB0BDE8F04F0D
:100D380008F001B812F10B0F11D10BB0BDE8F08F1C
:100D480040F2DB53984207D8A0F57A70FFF7CEFA45
:100D58000849FFF7D7FBDAE74FF07E50D7E7594647
:100D680005480BB0BDE8F04F07F0E5BF40420F0063
:100D7800B6C900080000FA43DDC900082DE9F04FA4
:100D88004FF4FF638DB0CDE908336C4809F016FFC6
:100D980030B96B4807F0CFFF00200DB0BDE8F08FE9
:100DA800684809F00BFF0028F3D0674E304609F079
:100DB80005FF08B96548EDE7B4683046644923681B
:100DC8009847014618B1634807F0B5FFE4E70020EB
:100DD800FFF722FF02460121636830469847044620
:100DE80010B101465C48EFE700255C495C484FF4C8
:100DF8007A7707F0A0FFA8465A48AA46A94607F0FE
:100E08009AFF594807F097FF0297029B0AAA08A978
:100E18005648CDF81090CDF814A0CDF81880079555
:100E2800CDE90A37524B009306ABFFF72BFF514B26
:100E380009A90BAA5048009307ABFFF723FF049BAF
:100E48000A9ADDF818801846079D0292039306F067
:100E580049FF294682464046DDF814B0FFF794F969
:100E68004649FFF79BFA814645495846FFF796FAE7
:100E7800014648460B9FFFF787F98146414950468E
:100E8800FFF78CFA01464846FFF77EF93E49FFF71F
:100E980039FB3E49FFF782FA5946FFF777F93B4994
:100EA8008246FFF77BFA039B1946FFF76FF938492B
:100EB8008146FFF71BFC00283CD136494846FFF71E
:100EC8000BFC08B9DFF8CC904846FFF7A5FE0246B0
:100ED800B36801211C485B689847014610B12E4849
:100EE80007F029FF1422B4FBF2F302FB1343D3B932
:100EF8002A494846FFF752FA2649FFF703FB0AF04A
:100F080030FA83464846FFF787FE40F6E4433A4600
:100F18000299584340F6FF73B0FBF3F05B4600902C
:100F28001F4807F008FF013400214FF4FA7009F058
:100F3800B8FF6AE7DFF85890C6E700BF14B70008A3
:100F4800F3C90008F4B60008D4B6000811CA0008AE
:100F580062BC000827CA000845CA000863CA00081E
:100F68007DCA000896CA0008BCCA000878BC0008F8
:100F7800A8E200089EE2000868BC0008B02E2E3FD8
:100F8800CDCCCC3C6EC3A83D3789413DCDCC4C3D42
:100F9800DB0F49C0DB0F49404DCA000800C82F4885
:100FA800E7CA000830B50446EFF31185102383F330
:100FB8001288BFF36F8F044B0FCB84E80F0085F3C3
:100FC8001188BFF36F8F30BD5801022001281FB56B
:100FD8000C4605D004281DD06FF0150004B010BDD4
:100FE8000AF01CF842F210720023FFF713FC104BB2
:100FF8005A43C4E90001A2606846FFF7D3FF694677
:10100800204607F066FE18B90A4B0FCB84E80F009C
:101018000020E3E70AF002F842F210720023FFF71B
:10102800F9FB034B5A43C4E90001A260F0E700BF93
:10103800A0860100F8BB000801287FB50D462CD119
:101048008A68174B9A4228D809F0E8FF42F21072D2
:101058000023FFF7DFFB4042124B61EB4101534392
:10106800CDE900016846029300F0CAF829466846AF
:1010780007F02FFEEFF31186102383F31288BFF3D6
:101088006F8F094D9DE80F0085E80F0086F31188E2
:10109800BFF36F8F002004B070BD6FF01500FAE742
:1010A800FFC99A3B6079FEFF58010220014B1B687B
:1010B800184700BF00000220014B1860704700BFAE
:1010C8000000022030B5044685B00D4610220021EC
:1010D80068460AF083F802232A4621468DF8023032
:1010E8006846034B019306F0B9FB05B030BD00BF5D
:1010F800B51000082DE9F84340F26C73446905699E
:101108000646E117E41805F10105C76841F1000139
:10111800022D07F1FF378CBF00230123E41A61F188
:10112800000100294EDA6FF4C7704FF4C87200232B
:10113800201861F10001FFF71DFB254B4FF03C0E15
:10114800032D03FB0044024634BF09206FF0020060
:10115800D6E90083B66805444FEAE37C99469920AE
:10116800634645430520C6FB0E93A9FB0EC6023510
:101178000EFB0366A30840F26D1E1CEB080C0EFB69
:10118800043346EBE8763B446427B4FBF7F4B5FB3D
:10119800F0F51B1B0F4C2B44A2FB042004FB0101A0
:1011A80098180D4A41F1000380180C4A63F10003B6
:1011B800A0FB020102FB031110EB0C0041EB06013E
:1011C800BDE8F8834FF4C87200232046B3E700BF98
:1011D80070FEFFFFB13A02009405F5FF805101004F
:1011E80010B5FFF787FF002402460B46034902F0BB
:1011F80009FF44501046194610BD00BF0C000000FE
:101208001F4B70B582689A4215DD0133D0E900168C
:1012180092FBF3F301294FEAE37476F100051CDA37
:10122800C91844EB0604C0E90014164901FB03235E
:101238008360012070BD002AFBDA9B1A124ED0E9A8
:101248000041B3FBF6F3002910DA01F100459C4296
:1012580075F100050ADA0020ECE7CD439D426FF0F6
:101268000045A5EB0605A541DADAF4E7E41A06FB22
:10127800032261F100018260C0E90041D9E700BFA3
:10128800FFC99A3B003665C400CA9A3B08B500F00E
:10129800B7F80A4901220023416109490361C0E9FD
:1012A80000220A6007490A60074A1360074A136068
:1012B800074AC0E90233136008BD00BF60CE0008CA
:1012C800200002201C000220400502203C050220CC
:1012D800380502202DE9F04781468846174600F078
:1012E8008FF8C36804461BB943691A78002A3ED1AF
:1012F8000023E36063684B4558F8232008DB314B33
:101308006361204600F060F84FF0FF30BDE8F087D9
:10131800511C616192F800A0BAF12D0FEFD1951C14
:10132800656156782D2EA66004D1927872B9013382
:101338006360E4E756B9234D51463846656109F0C4
:1013480065FF0028DDD05646C4F808A03146384667
:1013580009F05CFF3A2E00D070B92B7813B9636896
:1013680001336360204600F02FF83F20CEE75D1C74
:1013780045611E788660E9E743783A2B0BD0002355
:1013880023612B7813B9636801336360204600F04A
:101398001BF8A068BAE72B780A4A33B963680133A7
:1013A8009945636004DD58F82350C4E90452EAE71C
:1013B800626120463D783A2DD5D100F005F82846DF
:1013C800A4E700BF60CE00080168084A084B116016
:1013D8004168084A11608168074A1160074AC16874
:1013E800116002691A6003F02FBA00BF20000220C2
:1013F800380502201C000220400502203C0502207E
:101408000048704704000220034A0020536823F074
:1014180002035360704700BF002004E008B541682C
:1014280005480C3183681B681BB1984700EAE070D7
:1014380008BD6FF05700F9E7D4B40008192810B5B3
:1014480002D90024204610BD044B53F82040204602
:1014580009F0B4FB0028F5D1F3E700BFE8BD0008A8
:10146800064B1A6842F400721A601A6842F48072D5
:101478001A60034B034A1A60704700BF003C0240E1
:10148800F40002200024F400014B0360012070479F
:1014980050BE000810B5044604F0C2FE03490246D7
:1014A800204607F09AFF002010BD00BF1DCC0008A1
:1014B80037B51346002205460A21019201AA586849
:1014C80001F0D0FC019C4CB920EAE0700A21A0FB95
:1014D800010109F0E6FC204603B030BD224603496D
:1014E800284607F096FF019CF5E700BF49CC0008A5
:1014F800034A044908B507F070FF002008BD00BF83
:1015080039CD000840CD0008002307B50090694692
:1015180004488DF8043005F097FD9DF8040003B0E9
:101528005DF804FB978F000838B50446EFF3118582
:10153800102383F31288BFF36F8F04F053FE024623
:1015480085F31188BFF36F8F0649204607F045FFE2
:101558002046054907F041FF2146044805F08EFD65
:10156800002038BD82CD0008A1CD000879150008FB
:1015780070B58EB004460D46D0F8A06009F0B7FBF0
:10158800224A034602F03EFD1158214A2148002B09
:1015980018BF1A46234600921F4A8C4218BF0246BB
:1015A80028461E4907F019FF28461D49D4E90A2391
:1015B800CDE9002394F90E30A28907F00EFF06A9A1
:1015C8002022204605F0A8F8A36E024615492846B1
:1015D80007F003FF05A9204609F097FB024628B14A
:1015E8001149284607F0F9FE0EB070BD059B64222C
:1015F8002846F11A4A4300910C49B2FBF6F2CDE9AC
:101608000162324607F0E9FEEEE700BF080000007D
:10161800ABCD000815D8000891E30008AECD00084E
:10162800BACD0008E6CD0008FDCD00082ACE000896
:1016380030B591B004462022002108AD284609F0B3
:10164800CDFD1A222021284609F0C8FD2146104860
:1016580005F014FD07AA4FF400610E4809F049FB94
:10166800079A64232046C2F5006100954B43DB0AC4
:1016780005934FF40063CDE90132064ACDE903131F
:10168800403A0023044907F0A8FE002011B030BDFD
:10169800A5160008401202207BCE000870B504464B
:1016A80088B00D46D0F8A06007A909F02EFB0246C5
:1016B80028B10F49284607F090FE08B070BD2046B3
:1016C80009F015FB079B64220096F11A4A43B2FB06
:1016D800F6F2CDE90131074B0749002818BF034648
:1016E8002846CDE90362224607F077FEE5E700BF0A
:1016F800FDCD0008ABCD0008C4CE000838B51346B0
:10170800054610220021586805F0B6FF0446FFF789
:10171800FBFE38B922460E49284607F07AFE6FF0DC
:10172800150038BD0B4B02F06DFC1B589C4204D1D0
:101738000949284607F06DFEF1E7204605F0BCF997
:1017480028462246054907F048FE0020E9E700BF81
:1017580028CF00080800000043CF00086BCF00081E
:1017680038B51346054610220021586805F084FF55
:101778000446FFF7C9FE38B922460E49284607F045
:1017880048FE6FF0150038BD0B4B02F03BFC1B58B0
:101798009C4204D10949284607F03BFEF1E7204660
:1017A80009F002FB28462246054907F016FE0020EC
:1017B800E9E700BF28CF000808000000AACF00080A
:1017C800D0CF000838B513460546102200215868C6
:1017D80005F052FF0446FFF797FE38B922460E4936
:1017E800284607F016FE6FF0150038BD0B4B02F0C7
:1017F80009FC1B589C4204D10949284607F009FEF8
:10180800F1E7204602F098FB28462246054907F0F2
:10181800E4FD0020E9E700BF28CF00080800000029
:101828000BD0000830D0000810B50C46002108F095
:101838008BF800B100680023024A2060E360C4E925
:10184800012310BD50D1000810B50C46002108F046
:101858007FF800B100680023024A2060E360C4E911
:10186800012310BD50D1000870B5054650681446D4
:1018780008F072F8064640B962686FF012040F4922
:10188800284607F0C6FD204670BD09F097F930B12B
:1018980062680B492846002407F091FDF3E73046BB
:1018A80009F083F96268044628B1034605492846C9
:1018B80007F0AFFDE7E70449ECE700BF68D0000890
:1018C8007DD000089FD00008CCD000082DE9F04F4B
:1018D8008FB004468846914601A804F05DFD019F3B
:1018E8002D4A082107EB4017204607F05BFD019EB3
:1018F800BE4203D300200FB0BDE8F08F35680DB1AC
:101908002B7833B902AD3346244A302102A805F0BA
:1019180015FEB8F1020F07D1D9F80410284609F0CE
:10192800B3FC08B92036E3E72B461D4A08212046B8
:1019380007F038FD304609F041F91A4A1A4B0821D8
:10194800002808BF1346194A204607F02BFDF36903
:10195800002BE7D01D68002DE4D02B68002BE1D0C8
:10196800AB464FF0000A124A0821204607F01AFD3C
:101978002B68534505D80F4A0821204607F012FD69
:10198800D0E75BF8043F08210B4A20460AF1010A18
:1019980007F008FDECE700BFFFD0000809D10008F8
:1019A8000ED10008F6D00008F0D0000876D0000864
:1019B80013D100085FCE00080FD10008F7B51378DF
:1019C80006460F4615463A2B14D1541C23783A2B59
:1019D80028D101340A2201A9204605F0D9FD019A2F
:1019E80003463860A24217D01078A8B93C2B15D905
:1019F80015490EE00A2201A9284605F0C9FD019CF7
:101A0800B860AC4208D023783A2B05D1172807D9FB
:101A18000E49304607F0FDFC6FF0150003B0F0BD2D
:101A28000134D3E70A2201A9204605F0B1FD019B44
:101A38007860A342F0D01A783A2AEDD13B2801D930
:101A48000349E6E75C1CC5E7B8D100089AD100084D
:101A5800A8D100082DE9F04194B00D4604460120B4
:101A680006A91746FFF7B2FA0BA906A805F0B8FCB5
:101A7800032D55D17D680A2205A9284605F088FD61
:101A8800059E8046B54215D032782D2A12D10136EE
:101A98000A2205A9304605F07BFD059B9E4209D028
:101AA8001A782D2A06D1451E0B2D0CD92E49204611
:101AB80007F0AFFC204607F0E1FC6FF0150528465B
:101AC80014B0BDE8F0815E1C0A2205A9304605F075
:101AD8005FFD059B9E42EDD01B78002BEAD1431E8B
:101AE8001E2B01D92149E2E7A8F26C73BA680E905F
:101AF800CDE90F530BA92046FFF760FF0028D9D185
:101B08000BA8FFF76DFBB1F1FF3F08BFB0F1FF3F36
:101B1800CDE9060108D11649204607F07AFCCCE742
:101B2800022DC7D17A68E5E700230893012006A9AA
:101B3800FFF782FA054628B102460E49204607F00B
:101B480068FCBAE70B9B2046109A03930C9B02F2A1
:101B58006C72094902930D9B01930E9B00930F9B96
:101B6800013307F03AFCAAE7C8D10008D7D100082A
:101B7800E4D100080DD2000824D2000810B592B0B4
:101B88000446012004A9FFF721FA09A904A805F0D1
:101B980027FC099B0E9A204603930A9B02F26C725B
:101BA800064902930B9B01930C9B00930D9B0133F9
:101BB80007F013FC002012B010BD00BF24D20008AB
:101BC8002DE9F04114468846074610220021606836
:101BD80005F052FDB8F1020F06461CD90A22002171
:101BE800A06805F049FDC5B22A461F49384607F0E6
:101BF800F4FBB8F1030F1DD8102D0ED0202D0FD0F7
:101C0800082D0FD13278D2B200231849384607F090
:101C1800E4FB00200CE02025E6E7328892B2F3E7E7
:101C28003268F1E73846124907F0D7FB6FF0150024
:101C3800BDE8F0811022E068002105F083FD0B4625
:101C4800024604460B49384607F0C7FB102D06D05C
:101C5800202D07D0082DE5D1E4B23470D9E7A4B21D
:101C68003480D6E73460D4E773D200089ED20008E7
:101C780088D20008B1D200082DE9F047002386B0C9
:101C88004FF0FF35914601930122524B20262C46F6
:101C9800074688461A60FFF7F9FA4F4A4946404610
:101CA800FFF718FB431C06D1691C41D14B49384644
:101CB80007F0AFFB17E073281AD0772828D06128DF
:101CC80011D1DFF81CA101AA1021DAF8000001F0F7
:101CD800C9F8019B0546002BDFD0DAF800204149FE
:101CE800384607F096FB6FF0150006B0BDE8F087A0
:101CF800DFF8ECA001AA0021DAF8000001F0B2F840
:101D0800019B0446002BC8D0DAF800203649E7E7E3
:101D1800DFF8CCA001AA0021DAF8000001F0A2F84F
:101D2800019B0646002BB8D0DAF800202F49D7E7E8
:101D3800621C01D12E49BAE75FFA86F8C6F3C406D9
:101D4800A8F10803DBB2182B04D82A4A22FA03F3B5
:101D5800DB0724D442462849384607F03EFBC2E751
:101D6800B8F1100F22D0B8F1200F25D0B8F1080F24
:101D780001D10A781A70314433444218102AEFD935
:101D8800102CA146294605F1100528BF4FF010096F
:101D980002AA3846A4EB09044B4600F05DFFB4B133
:101DA800A642EDD802AB2946701BE6E70A8892B234
:101DB8001A70120A5A70DEE70A68C2F3072C1A7002
:101DC800120C83F801C09A70120ADA70D3E7204621
:101DD8008BE700BF1C00022001D3000808D30008CD
:101DE80038050220C7D20008DAD20008EDD2000870
:101DF80025D30008010100013FD3000870B50E4E3D
:101E080004460D46337829B123B10C49BDE870402A
:101E180007F0FFBA83F0010333702BB1084920465D
:101E280007F0DBFA01233370294620460022BDE87B
:101E3800704007F03DBB00BF9809022059D3000845
:101E480094D300082DE9F04105460C468F18DFF8B9
:101E5800EC803B4EA74201D1BDE8F08198F8002004
:101E680014F8013B182A22D1112B20D1354C002619
:101E780035492846226888F8006007F0AEFA2846F7
:101E88003146FFF7BBFF314B18780028E4D1304AC0
:101E980023681168042B2EDC08B12360116013F04D
:101EA80003012FD1126813681BBA1360D4E7A3F19A
:101EB800300288F80030092A04D923F02002413A78
:101EC800052A04D83168234A5354013131603368F4
:101ED800022BBFD1102200211E4805F0CDFB1E4A5F
:101EE800136803F8010B1360164A13680133136073
:101EF80000233360AEE70868043B00BA41F8040BDE
:101F08000120C7E75B4203F0030358BF5942022987
:101F180004D1126813885BBA9BB2C6E703299BD128
:101F2800106802681104C2F3074302F47F4201F407
:101F38007F010B43134303608EE700BF990902201A
:101F4800F4050220F8050220BED300089A090220F1
:101F5800FC0502209B090220000602202DE9F84317
:101F680000230D4626498046264E17460B60264913
:101F780033700B60012DB94657F8044F1DD9022262
:101F88002249204609F04FF970B9A378003B18BFE1
:101F980001231C4402221E49204609F044F928B9AD
:101FA80001233370013DE5E70023F2E71749204696
:101FB800FEF74AFCC0B909F104090022D9F8040067
:101FC800114605F059FB0022124B11461860D9F84A
:101FD800040005F051FB104B104918604046FFF70C
:101FE8000DFF0020BDE8F88323782D2BE5D1637819
:101FF800002BE2D022460A49404607F0EEF9D1E725
:10200800F40502209A090220F8050220D8D3000816
:10201800DBD3000800060220FC0502204D1E000844
:10202800DED3000813B5094808F0C8FD50B10024F4
:1020380001233A2205490648009400F061FE204633
:1020480002B010BD6FF01200FAE700BFB4B6000886
:1020580094BA000810B54468A360C4E90012426845
:102068004021134653F8404B516302F13801536243
:102078000023C2E9041308211363C2F8B8301162BF
:10208800C2E90A33C2E90633A36823B19B6C13B1D2
:10209800044920469847A3689B6A0BB12046984795
:1020A800002010BD5D90000810B581680446183105
:1020B80001F064F9A1682046024A1831BDE81040D1
:1020C80001F0FCB858D5000838B583680446D3F841
:1020D8008032DB051AD4406803685B689847054678
:1020E80020B9E06808F01FF8A3681D75A3685B6C49
:1020F80013B1294620469847A368002201F082FFC1
:10210800C3F8A022034B185801F016FF6FF00F0513
:10211800ECE700BF08000000014907F04DB800BF18
:102128005FCE00082DE9F04FA7B0044654220021E5
:1021380011A809F053F800232046CDE90533A36818
:102148005C33029307F022FD204607F066FC10B9C5
:102158006069FFF7E1FFA06814220021002618300B
:102168004FF0FF3809F03AF8204607F0B3FBA168B2
:10217800E068B246B1F8542011AF5C31B346354639
:10218800B14607F095FF204607F0F6FF0396DDE914
:102198000532012A6BD0132B6CD8B8F1000F2AD165
:1021A800BBF1000F0AD0204608F007F8A2681423F4
:1021B80011A95C320DEB030007F02CFAB9F1000FFE
:1021C8000CD099F81130FE2B08D1059B26AA02EBFA
:1021D800830252F8542C0AB101330593A068436A6C
:1021E800002B40F0B580C6B1C369B3422BD000F1D3
:1021F80018050D9622E00223029A394606A807F030
:1022080009FA7A6806990346029231B101290AD17E
:1022180048B16A4A204607F067FD6FF0070528466F
:1022280027B0BDE8F08F059B002B32D0386801F04D
:10223800D5F898B166B1A5680D9618350CAE0FCED5
:102248000FC533682B6020460125FFF72DFFE6E711
:102258005B4A0121204607F047FDDEE7059BC3B135
:102268003A682946204601F055FA022809D1059B0B
:10227800132B95D9069B022B92D1524B0121524A1E
:10228800C8E7032805D0059B4FF0010B01330593E0
:102298007DE7039B2BB907AA3968484607F090FAEF
:1022A8000546043708F1FF38A5B3EB68BBF1000F0A
:1022B80008D0FBB1204607F069FC204607F0C4FBB4
:1022C800424AC6E7B3B1A368AE46DDF814A003F1ED
:1022D800180CBEE80F00ACE80F00DEF80030CCF8B0
:1022E8000030AB6833B96B7CFE2B04BF95F81080C7
:1022F80008F1FF38D5F804C0BCF1000F08D0AE468D
:102308000CAEBEE80F000FC6DEF80030336066463C
:10231800A94603E0059B63B101230393B8F1000FBD
:1023280003D1069B022B7FF432AF059B0133059343
:102338002DE7A368DB6A13B1DB68002BECD1244BD3
:102348000121244A20460093119B07F0CDFCE3E7C6
:10235800059D90F82830A5EB0A05BBB190F8291027
:102368004FF6FF72FF2918BF0A469D4202D3134455
:102378009D420BD983690121174A204607F0B4FC16
:1023880020466FF01505FFF78FFE48E7012106F09C
:1023980032FFA06806F023FFA36811AA29465B6AEA
:1023A800204602EB8A0298470546A06806F01BFF04
:1023B8000021A06806F01FFF31E700BF66D50008BE
:1023C8007AD50008DBD50008A3CC000898D500080A
:1023D800C7D50008CED80008FFD50008F7B50446D1
:1023E80080680D46817D002949D1D0F880325A0590
:1023F80004D506F00BFFE06807F02CFEE368DB6805
:1024080073B9002D3BD0A66806F15C07384606F084
:10241800E0FE002835D0394606F5AE70FEF71EFA04
:10242800A2680DF106032946E0685C3207F015FE44
:1024380058B9A06800F5AE715C30FEF70FFAA068D5
:102448005C3006F0C6FEADF80600204607F097FBA4
:10245800A368D3F87C329B0603D50B49606906F064
:10246800ABFE204600F064FDA268BDF806302046A9
:10247800A2F85630A268A2F8543007F0E5FA03B083
:10248800F0BD86F85C01CBE720BC000810B502223D
:10249800836804461A7583689B6CBBB906F063FEB3
:1024A8008368D3F88032DB040BD50321084B094A33
:1024B80007F01AFCA0686FF4805100F5207006F050
:1024C8006CFE2046BDE8104000F0B6BE10BD00BF4F
:1024D8001AD6000810D100082DE9F04F0023B1B03A
:1024E80004460993A36860689E6C026815691EB368
:1024F800DF6C102209AB1BA9A847099BCBB10121AE
:10250800A06806F078FEA06806F069FE3B46099AC6
:102518001BA92046B047A06806F065FE0021A06808
:1025280006F069FEA3689B6C002BDBD12046FFF701
:10253800ADFF31B0BDE8F08F09AB01220DF12301E9
:10254800A847099B002BF4D09DF923109DF8233050
:102558000029A268C6DB517D032900F20A83DFE85F
:1025680011F004007E02950208030D2BD2F88012A8
:1025780041D00A2B3FD021F0FF01092BC2F880126D
:102588006BD028D8002B00F00081082B00F0EA81DE
:10259800A268D2F87C12890740F1F780013B162B1C
:1025A80000F2F380DFE813F0C202FD010102F90135
:1025B800BC021A02F100F100F100F1001E02220231
:1025C800F1003702F1003C02F100F100F100F100E6
:1025D8003E02F10053021B2B3BD07F2B00F0CF8132
:1025E800A3F120025E2AD3D80121A06806F00EFECE
:1025F8009DF82310B9E0C9B221B1D2F88012C9B24E
:102608008B42C5D1D2F8801263F30701C2F8801259
:10261800A568AB7D012B06D16069FFF77DFDA36836
:1026280002229A7585E7B5F8541061B9284606F074
:10263800EDFDE06807F00EFD6069FFF76DFD2046CF
:10264800FFF724FF4EE72046FFF76CFDC5F8A4020C
:10265800F5E7A36801225A7597E0A068D0F87C32A4
:102668009B0740F19280012106F0D0FDA068857D8E
:10267800002D40F08A80B0F85430FF2B00F08580A0
:10268800B0F8562000F15C0100F5AE7008F07FFD4F
:10269800A3681BA90BA8B3F85620134483F85C5110
:1026A8001423A26802F5AE7206F0B4FF0B99142940
:1026B8006BD830AB03EB810343F8545CA368B3F8E1
:1026C8005620002A00F05782134493F85B30202BE1
:1026D80000F0558221B1093B042B4BD9012948D17F
:1026E80000250A9530AA0A9B002602EB8303B3460D
:1026F800374653F854ACB046504606F06AFD81465A
:1027080016AA4146284600F073FB0346002840D12C
:10271800012E67D130AA0A9B02EB830353F8540CAD
:1027280006F057FDA268064639461832284600F0DA
:102738005FFB0568284606F04CFD864205D0821BE3
:10274800A919204692B207F016FBA068B0F85630D7
:10275800034493F85C30202B33D0093B042B30D949
:10276800D0F87C32DF0731D42021204600F02CFD40
:102778000BE0013900200CAB1BAA00930AAB0190B7
:1027880007F04AF805460028ACD1606906F09BFEC0
:10279800A8E61B684A4651461846039308F043FDCD
:1027A80060B9039B1846FEF761F8584538BF58468C
:1027B800002E08BF474601361FFA80FB08F10108C2
:1027C8009EE70121204607F073F9DEE7002106F0B5
:1027D80028FD2021204600F0F7FC0121A06806F022
:1027E80020FDD2E70490D0D930AB0A9AB94603EB62
:1027F800820252F8543C1846039306F0EAFC049B04
:10280800A2680690A2F840300496A2684946284675
:1028180009F10109183200F0EBFA039BD0F800A087
:10282800D4F80880002B38D0BAF1000F38D0069AB7
:102838001946504608F0F7FC0028E6D1BD4806F0D6
:10284800C8FCB8F83A2000EB0B01121A504689B2BE
:1028580092FBF1F292B20591079206F0BAFC059943
:10286800079A091A8BB2B8F84010481C0593A8F8C3
:102878004000B1FBF2F002FB101189B200295ED1D1
:10288800AC4B0621AC4A2046CDF800A007F02CFA44
:102898000599204600F036FB05E0BAF1000FCDD1CE
:1028A8000023A8F84030049B013B0493ADD1606934
:1028B80007F10109FFF730FC204600F0BDFC30AA03
:1028C8000A9B02EB830353F8540C06F082FC39464A
:1028D80011AA8046284600F08BFA0746A068FF2216
:1028E800396800F5AE7008F0B0FC3B684FF6FF772A
:1028F8000393BA4616AA4946284609F1010B00F087
:1029080077FA18B3A1680022036801F25B1111F885
:1029180001EF985C704503D110B101325245F6D1F0
:10292800B8F1000F01D0424507DBBA4206F1FF3685
:10293800A8BF3A46012E97B208D0D946DAE75346DF
:102948007E4A0621204607F0CFF9A1E7002F3FF481
:102958001CAFA7EB08020399204692B2414407F046
:102968000AFA12E7A068D0F87C329E077FF50DAF0F
:10297800012106F04BFC204607F01EFA05E7A06887
:10298800D0F87C329D077FF500AF012106F03EFCB0
:10299800A368D3F87C321807EDD4204607F0EDF988
:1029A800F3E6204607F0FBF8EFE6204607F0EEF8DE
:1029B800204607F032F810B96069FFF7ADFB012136
:1029C800A06806F023FCA3689A7D012A02D103229D
:1029D8009A75DAE62046FFF759FDD6E6204607F055
:1029E800E7F8D2E6204607F0EEF8CEE6D2F87C32D9
:1029F8009F0603D55249606906F0DEFBA368D3F849
:102A08007C329E0603D54F49606906F0D5FB204607
:102A180000F012FCB9E600212046FFF7DFFCB4E61F
:102A28000121F9E7204607F0AAF8204606F09BFBAB
:102A38000121A06806F0EAFBA368D3F87C329D0662
:102A48007FF5A3AE4049606906F0B6FB9DE62046D7
:102A580000F0E8FA0121A06806F0D8FB95E65B2BA8
:102A680002D10223537590E6D2F87C22900706D54E
:102A7800622B07D14FF0FF31204607F041F8A368D9
:102A88000022E8E5662BFAD10121F5E7002151750E
:102A9800A268D2F87C1289077FF524AD313B1B2B45
:102AA8003FF673AE01A151F823F000BF312B0008A7
:102AB800552B0008692B0008252B000893270008D0
:102AC80093270008932700089327000893270008F6
:102AD80093270008932700089327000893270008E6
:102AE800932700089327000893270008292A00083D
:102AF8001F2A0008E5290008AB29000893270008C9
:102B0800292B000893270008352B00089327000875
:102B18009327000893270008592B000803235375AF
:102B2800204607F033F830E603235375204607F0B4
:102B380026F82AE614D800085ED6000810D1000846
:102B480025BC00082ABC000820BC000803235375D4
:102B5800A068D0F87C1201F0010181F001013EE685
:102B680003235375A368D3F87C329B077FF50DAE1A
:102B780013E7002376E700297FF4B0ADB0E500291C
:102B88007FF4F8ADACE500BFF7B50446806815469C
:102B980000F52070002932D04FF4804106F0EEFA9B
:102BA800A36800211D65606803689B68984758BB47
:102BB800204606F08DFB38BB4FF0FF364FF0FF374D
:102BC800A06800F5217000220721CDE9006708F010
:102BD800DBFAA06806F007FB0C4A0421204606F041
:102BE8002FFB20460A4A012106F02AFB6068036889
:102BF8005B6903B19847A06806F0F1FAE0E76FF463
:102C0800804106F0CAFACBE703B0F0BDD120000836
:102C1800A792000810B504460A4906F0DEFB0A49E7
:102C2800204606F0DAFB2046084906F0D6FB204687
:102C3800074906F0D2FB2046064A002100F03EFB79
:102C4800002010BD64D60008A2D6000801D70008ED
:102C580055D70008F0D70008F8B5002516460A46EB
:102C6800204904461F4606F0B8FBAF420ED9725DF4
:102C780020461D4906F0B1FB0135102D0BD06A071F
:102C8800F3D11A49204606F0A8FBEEE7184920467A
:102C980006F0A3FBF0E700251649204606F09DFB49
:102CA800BD4213D2725D20461349A2F120035F2B67
:102CB80028BF2E2206F091FB0135102D0BD06B0793
:102CC800EED10A49204606F088FBE9E70749204685
:102CD80006F083FBF0E720460849BDE8F84006F017
:102CE8007CBB00BF06D800080DD8000815D800081E
:102CF80013D8000817D8000839D8000819D80008D0
:102D08002DE9F0410446806888B08846D0F8A06272
:102D180015461F46002E50D14FF42A72314608F04E
:102D28005DFAA06800F5217008F022FAA06800F5A5
:102D38002470012266F38205114607F0C6FFA369D5
:102D48004FF400711E60A06800F5207006F016FAB6
:102D5800A368502220465A871822A3681A87216838
:102D680006F065FBA368164A4146C3F87C526068C2
:102D780003681D682346A8470546D0B9A368012201
:102D88001A75D4E909010022002304950094CDE9BD
:102D980006230E234FF4006203930E9BCDE90173C3
:102DA800084B03F073FDA368C3F8A002216A03F07F
:102DB800A3FC284608B0BDE8F0816FF07705F8E776
:102DC80093920008912B000810B5044613460A4652
:102DD8000146064801F082FA23691B7923B120468F
:102DE800BDE8104006F06FBB10BD00BFE7940008B7
:102DF80038B50B46154648B91449154A521AB3EB6B
:102E0800920F05D251F82350284638BD84680CB972
:102E18000025F9E70F4A94420AD30F4A944207D291
:102E280018462268294690472B68002BECD1EFE71B
:102E38000A4A944202D30A4A944205D324681422C7
:102E48005343E518E358F0E70133F8E7C0BA000840
:102E5800ECBA0008F0BB0008F8BB0008ECBA0008A0
:102E6800F0BB0008F7B50378044615462D2B05D1AD
:102E78006FF0150300202B6003B0F0BD00230C4F4A
:102E880001F0C0F80646C3510A46204601A904F0DD
:102E9800F3FBF359222B02D16FF02103EAE7002B51
:102EA800E6D1019BA342E3D01B78002BE4D0DFE7F7
:102EB8000C0000008368D3F87C329B0603D50249D6
:102EC800406906F08BBD704730BC0008014906F028
:102ED80085BD00BF5FCE00080A1E0DDC0ED0422360
:102EE8008168D1F87C12890608D5002A044940690E
:102EF800B8BF524206F072BD4123F1E7704700BFE8
:102F080035D800080A1E0DDC0ED044238168D1F89C
:102F18007C12890608D5002A04494069B8BF524284
:102F280006F05CBD4323F1E7704700BF35D80008C1
:102F38002DE9F0478468054604F15C00FDF796FC2E
:102F4800002287B294F83C809146668FA6EB08066B
:102F5800BE4209DB002F21DD5C326869104922443A
:102F6800BDE8F04706F03ABD16445C320D493444DA
:102F780094F85CA084F85C90AB6868691A4406F021
:102F88002DFDAB683246334483F85CA0AC68638F90
:102F9800A3EB08034FF00008FF1AD6E7BDE8F08757
:102FA80010D10008A3CC000808290A4617D883685E
:102FB80093F83E10914212D083F83E20082A836885
:102FC800D3F87C3205D0990609D50549406906F041
:102FD80005BD9B0603D50349406906F0FFBC704751
:102FE8003CD8000835BC000838B50D4609780446B9
:102FF800FFF7DAFF6A78072A11D8A36893F83F1019
:1030080091420CD083F83F20A368D3F87C329B060A
:1030180005D560690249BDE8384006F0DFBC38BD17
:1030280045D80008F8B583680446B3F85420002A48
:1030380055D0B3F85610002951D05B3103F15C0527
:103048000B441846A84206D3014611F80169202E00
:103058003CD0A8423CD286B2471C9DB2AB1B9BB267
:10306800591CD21A0144384608F09FF8A268711B0F
:103078002046B2F8543013FA81F309B2A2F854305A
:10308800A368B3F854201344002283F85C2006F0A8
:103098000FFDA368D3F87C329A0603D510496069FE
:1030A80006F09CFC3B460F4A0821204606F01CFE11
:1030B8002046FFF7FFFEA368D3F87C329B060ED5A7
:1030C80060690949BDE8F84006F088BC0846B9E7D8
:1030D800014611F80169202EBDD00846B9E7F8BDB0
:1030E8003ABC000810D100083EBC00082DE9F047A2
:1030F80004460F4690460AB1FFF7DCFEA668D6F8EC
:103108007C32B6F856505B0723D505F15C00304495
:10311800FDF7ACFB0546B5B9A368B3F85420A3F88E
:103128005620A06806F067FC30B1B8F1000F00D057
:1031380017B16069FFF7CAFE7942204609B2BDE8B7
:10314800F04706F0B5BC1D49013D606906F046FC34
:10315800E1E73046AA46FDF789FBB6F85490738F2D
:1031680019FA80F915FA80F0B0FBF3F2B9FBF3F322
:103178009A421AD04845A368CEDA5A8F451CB0FB4C
:10318800F2F302FB130313B96069FFF79FFEA3680C
:103198000AF1010620460A4A53440821B24693F828
:1031A8005C3006F0A1FD2846E4E75C35054A0821B5
:1031B8002046731906F098FDAEE700BF91E30008BA
:1031C80039D8000810D1000813B5836804468DF873
:1031D8000710D3F87C22D00725D5B3F85610B3F8DA
:1031E80054208A421FD0481C9DF80720A3F8560097
:1031F8000B4483F85C20A368D3F87C12890710D5A8
:10320800D3F87C32606913F0040F0A4918BF2A22E8
:1032180006F0E4FB204606F000FC10B16069FFF7F9
:1032280055FE02B010BD01220DF10701204606F03F
:1032380068FDF6E739D8000810B5836804469A7D1A
:103248001AB9094A022106F04FFDA368D3F87C3267
:103258009B0707D52046FFF76BFE2046BDE81040C8
:1032680006F001BC10BD00BF10D10008014906F0EE
:10327800DDBD00BF5FCE0008F8B50F4651680546B2
:1032880016461C4611B11A4606F0DDFDB3688BB12F
:1032980021462846FFF736FE074A08213B462846BE
:1032A80006F022FDB168E21D21B12846BDE8F840CC
:1032B80006F0C9BDF8BD00BF4ED800082DE9F0439F
:1032C8000E46002189B0044617460D4603AA30462B
:1032D80001F10108FFF78CFD88B96DB127B13A46B5
:1032E8000821204606F000FD002103AA304601F11E
:1032F8000108FFF77DFD60B909B0BDE8F0830068FB
:1033080010B1FDF7B3FA80B28542414638BF054691
:10331800DCE7D0F80090B9F1000F0FD099F8003031
:1033280063B147680821124B2046124ACDE900597B
:1033380006F0DAFC27B96069FFF798FF4146D4E741
:103348000B4B20460C4A082106F0CEFC384606F006
:103358005BFDAB1D9BB228B13A4649462046FFF7B4
:103368008BFFEBE71A463946204606F06CFDE5E789
:1033780097E3000859D8000860D80008F7B50F6827
:1033880005460E46D7B13846FDF770FA84B2114BA0
:1033980008212846104A00933B4606F0A5FC7168B0
:1033A800084606F031FDE31C9BB248B10A462846A0
:1033B800316803B0BDE8F040FFF75EBF3C46E6E782
:1033C80031B11A46284603B0BDE8F04006F03BBDCF
:1033D80003B0F0BD93E300085FD6000810B50749B5
:1033E8000446FDF731FA38B105492046FDF72CFAB5
:1033F800B0FA80F0400910BD0120FCE765D800084C
:1034080068D8000810B583680446D3F87C329B0658
:1034180003D50649406906F082FDA36850220020C2
:103428005A871822A3681A8710BD00BF42BC00083B
:1034380008B5836902491A6805F0CFFF002008BD66
:103448006FD80008F7B50D4905460D4C05F0C5FFC6
:103458000C4E0022B44202F1010702D3002003B04F
:10346800F0BD236A92B20849284600932C3454F8D8
:10347800243C05F0B2FF3A46ECE700BF7FD80008CD
:1034880094BA0008C0BA000897D80008024908B5DD
:1034980005F0CDFF002008BD60CE000837B5044612
:1034A8000025A2680DF106030121E06802F5AE725D
:1034B80006F0D3FDBDF80600A36840B12A4603F51F
:1034C800AE7305492046013505F087FFE9E783F823
:1034D8005C0103B030BD00BFA8D8000810B5044691
:1034E80005F0DEFF03490246204605F076FF00207E
:1034F80010BD00BFD4D30008022907B50BD153680B
:103508000C4900930C4B126805F083FF6FF015000F
:1035180003B05DF804FB8368084AD3F87C32084995
:1035280013F0020F074B18BF1A4605F056FF00208C
:10353800EEE700BFCBD80008B6D80008B2D800081C
:10354800D4D8000858CD000810B583680446D3F8CD
:103558007C329A0603D50749406906F0E0FCA36867
:10356800D3F87C329B0603D50349606906F0D7FC83
:10357800002010BD49BC00084EBC00080129F0B568
:10358800044685B00BD053686FF015055B4900936E
:103598005B4B126805F03DFF284605B0F0BD836817
:1035A800D3F87C329A0603D55649406906F0B7FC31
:1035B8006FF0F9012046FFF78FFCFA21204600251D
:1035C800FFF7A0FCA0684FF48072294600F5AE70A2
:1035D8008DF80B504FF47A7607F000FE4A4960697F
:1035E80006F09DFC606905F06EFF606801220DF130
:1035F8000B0103681F6903ABB847039B53B9013E2E
:103608004FF47A7007F0ABFAB6B2002EEDD16FF036
:10361800850534E09DF80B20A3681B2A60D093F839
:103628005C111B29E1D1522A5AD15A19002382F878
:103638005C31A66896F85D215B2A38D106F25D15E3
:10364800022015F8011F024601303B2980B231D112
:10365800FF2ADCD002F5AE7216FA82F1002211F8C8
:10366800015F002D30D1FA2A86F85C51A16828BF85
:10367800FA22FA2B4A8728BFFA23A2681387A3687D
:10368800D3F87C329B0603D52049606906F047FCD5
:10369800002D81D0A36850221D4920465A87182240
:1036A800A3686FF007051A8705F0A5FE74E786F88A
:1036B8005C31ACE703EB83033039B0F5807F01EB75
:1036C80043018BB2BDD1A2E7013002EB8202303D4B
:1036D80080B205EB4205B0F5807FAAB2BFD196E76C
:1036E8002B440135ADB283F85C21092D7FF67DAFFF
:1036F800A368002283F85C2189E700BFCBD80008C3
:10370800B6D8000854BC00089AE3000858BC000862
:10371800E5D800082DE9F04F074689B015468946D7
:1037280021B1104606F014FD00285BD1032455E0B2
:103738005C463CE029460AF5AE7007F0A5FD064652
:10374800002854D0FDF792F8314682B2601C08F187
:1037580001080132304407F028FD22465946304618
:1037680007F015FD4FF020033355BAF858300133F0
:103778001C44AAF85840002401994B1C03AA484647
:103788000193FFF735FB0646E8B100223168284669
:1037980006F070FD0028EFD1D6F800B0D7F808A0E1
:1037A800BBF1000FC4D05846FDF760F884B2BAF8F0
:1037B80058302344FF2BBDDD01242B460D4A03213D
:1037C800384606F091FAB8F1000F07D0B8682A46D3
:1037D80000F1580100F5AE7005F0CBFF204609B0A6
:1037E800BDE8F08F4FF0000802244146C5E70224E7
:1037F800E9E700BFE2DD000880B505460E4617463A
:10380800984603F0DBFADFF82090034600F0FAFB55
:103818000446424649F8003039463046A84754F82D
:10382800090000F089FB00BF0800000006480021DD
:10383800064A08B5121A06F0D0FC0548054A0021C8
:10384800121A06F0CAFC08BD58010220C00902205D
:1038580000000020000000200A480B4A0B49121AF9
:1038680008B506F0BCFC0A480A4A0B49121A06F0C9
:10387800B6FC0A480A4A0B49121ABDE8084006F085
:10388800AEBC00BF0000022054010220ECE3000897
:103898000000022000000220ECE3000800000020E5
:1038A8000000002040E5000838B505460C4699B1EF
:1038B8001048D1E90123096805F03DFAE1680E488E
:1038C800D4E9042305F037FAE1690C4805F033FA26
:1038D800A1690B4805F02FFA012D05D1EFF30581F9
:1038E8000848103905F027FA21462846BDE838402F
:1038F80002F05CBD34DE000864DE000894DE0008D7
:10390800A4DE0008D3DE000830BFFFF7FDBF00BF0C
:103918002DE9F0410B4E0546DFF82C80324606EBC8
:103928000807CC1B0949204607F031FCA019083CC0
:103938004246002107F052FC07F10800C5F8AC40E8
:10394800BDE8F0810000000008000000F8BB000896
:103958002DE9F843324D804632488946174605F02E
:10396800EAF9AB6ADE0622D511242F4805F0E3F9FF
:10397800AB6A1D0703D512242C4805F0DCF9284D45
:10398800AB6A980715D52A4805F0D5F96E6BAB6A6E
:10399800190642D53146274805F0CDF9B9F1000F8F
:1039A80003D0AB6A23F08003AB62132403E0102436
:1039B800DEE76FF015061A4DAB6ADA0703D5142453
:1039C8001D4805F0B8F9AB6A9B0603D515241B48BA
:1039D80005F0B1F9124B9A6AD50602D49A6A900793
:1039E8000AD55B68190507D54146304600F056FAF6
:1039F80010B180F309880224094B9A6A920603D50C
:103A08005A6A22F400525A629A6A204642F0FF0229
:103A18009A6200233B70BDE8F8836FF01506C4E78F
:103A280000ED00E0E7DE0008FEDE000832DF0008F7
:103A380046DF00085FDF000876DF000896DF000831
:103A480010B51D4C1D4805F076F9A36A990130D5CB
:103A58001B4805F070F91E20A36ADA0103D519483E
:103A680005F069F91F20144CA36A1B0303D51648F7
:103A780005F061F92120A36A590303D5134805F01D
:103A88005AF922200C4CA36A9A0303D5104805F072
:103A980052F92320A36ADB0303D50E4805F04BF93E
:103AA8002420054A936A6FEA03436FEA134393623B
:103AB80010BD1D20D0E700BF00ED00E0C6DF000804
:103AC800DFDF0008F3DF00080EE000082DE0000843
:103AD80053E000086EE0000870B5244C0646244800
:103AE8000D4605F028F9A36AD90435D5214805F013
:103AF80022F91720A36A1A0503D51F4805F01BF9F8
:103B080018201A4CA36A9B050FD51C4805F013F919
:103B1800A16BA36A180407D5194805F00CF91EB162
:103B2800A36A23F40043A3621920104CA36A590521
:103B380003D5144805F0FFF81A20A36ADA050DD555
:103B4800114805F0F8F81B20084A936A43F47F43AC
:103B5800936200232B7070BD1620CBE7A36A9B04E9
:103B6800F2D50A4805F0E7F81C20EDE700ED00E083
:103B78009AE00008B1E0000832DF0008C3E000085E
:103B8800DDE00008F3E000080FE1000896DF000818
:103B98005F4B2DE9F0415F688AB004460025C7F302
:103BA800080685F31188BFF36F8F02F07F43B3F1E6
:103BB8007F4F06D102F00C03082B13D1554805F0AE
:103BC800BAF800252C464FF00008F31E8DF8078040
:103BD800092B00F28D80DFE803F00A81857D8B8B4D
:103BE8008B8B8B8910074CBF0C460125EBE7484EA1
:103BF800494805F0A0F88DF80780F36A9A0704D5BC
:103C0800464805F098F800232AE0F36A002B01DA09
:103C18004348F6E7F36A5B00F5D5424805F08BF8B0
:103C28007369A26943F480737361BFF34F8FBFF365
:103C38006F8F32F8023C726922F480727261BFF3AE
:103C48004F8FBFF36F8F03F47F42B2F55F4F28D1D8
:103C5800DBB2022B25D12168334805F06CF82368C4
:103C68009DF80720D2B902AE04F120072068083475
:103C780054F8041C3246BC4203C21646F6D1099ACF
:103C8800002D41D0C2F3080121B96FEA52226FEA30
:103C98004222099202A91846FFF706FE0AB0BDE8BB
:103CA800F0811B4B9A6AD2B232B10DF107020121A1
:103CB8002046FFF74DFE0FE09A6A12F47F4F05D0B9
:103CC8000DF107010120FFF707FF05E09B6AB3F537
:103CD800803F98D3FFF7B4FE0346C1E70DF1070212
:103CE8000021E5E70DF107010020ECE70F4888E720
:103CF80017F4F87F0E4B0F49A6F1100208BF1946BA
:103D08000D4805F018F87EE76FF30802C1E700BF19
:103D180000ED00E056E1000882E100089AE10008A1
:103D2800BCE10008CBE10008EBE1000808E200086C
:103D380028E100083DE100082DE20008044B5A691B
:103D480042F010025A615A6922F008025A6170471B
:103D580000ED00E0EFF30880EFF3098101B572464A
:103D6800FFF716FF01BD00BF0E4880F3088810203A
:103D780080F311880C484FF0AA014FF4046206F052
:103D88002CFA09484FF40461401880F30988EFF3CE
:103D980014800221084380F31488BFF36F8F00F06A
:103DA80049F80000C01F0220001202201EF0040F74
:103DB8000CBFEFF30880EFF30980816911F8021C4A
:103DC8000229FFD001B5724606F00BFA01BD00BF0B
:103DD80040B2002807DB0123410900F01F00024A16
:103DE800834042F82130704700E100E040B20131E1
:103DF80000284FEA0111C9B206DB00F1604000F566
:103E0800614080F80013704700F00F00014B19540F
:103E1800704700BF14ED00E0044B054A23F07F0310
:103E28009360BFF34F8FBFF36F8F70470000000898
:103E380000ED00E008B5FFF7EFFF0B4AD2F8883035
:103E480023F47003C2F88830EFF3148323F00403DB
:103E580083F31488BFF36F8FFFF7E8FCFFF7FCFCD0
:103E680000F0B2F802F06CFB00ED00E042F8203CF4
:103E7800203A009B08495360019B21F0010193609F
:103E8800029B9161D3604FF08073D3610023026578
:103E9800C0F8B030704700BF013800080A4A03462E
:103EA800906878B113F1160FD0F89C0005D0A0F1F6
:103EB8004002934205D3834203D2814228BF0020A7
:103EC80070470020704700BF6809022015460D4A58
:103ED8000E4608B50C4B9060D0F8AC201A6000F084
:103EE800A3F82C4686F309880020044B98472046FF
:103EF800002100220023024C204700000FA20008E6
:103F08000138000868090220B0080220014B10227D
:103F18001A61704700ED00E0054B5A699B689A42A8
:103F280004D0044A536843F080535360704700BF7D
:103F38006809022000ED00E0084B9B6883420BD122
:103F4800EFF3058343B1064B5A6842F080525A603A
:103F58005A6A22F400425A6202F036BF6809022007
:103F680000ED00E015498A684FF030001044EFF387
:103F7800098C80E8F01F102080F31288BFF36F8F40
:103F88000F4F4FF000664A698A603E60D2F8AC0075
:103F98000C4C2060D2F8B0000023C2F8B03080F397
:103FA800118804B5104600F03FF8BDE8044002F15E
:103FB800300090E8F01F8CF30988704768090220E8
:103FC80004ED00E0B0080220002304481021C218C4
:103FD8000133512B82F80013F9D1704700E100E05A
:103FE80008B5EFF30583064A103B02EBC30152F80C
:103FF800330049688847BDE80840FFF78DBF00BF18
:1040080054B700080148006870470000B008022053
:10401800024B0121024A034800F078B8000008204A
:104028000000022084C20008D0F89C304021054AD4
:10403800403B10461360044BC2E90113012100F014
:104048006FB800BFB408022000000B15084AC2F878
:1040580098000B6823F01F03034343F01003C2F8D2
:104068009C308B6843F00103C2F8A030704700BF52
:1040780000ED00E02DE9F0430E4685B01F460446EA
:104088004FF00009DFF85480B14523DA6068D8B1F1
:104098003FB1411E08421BD11F2819D92368194274
:1040A80016D12368019306F0C2F8A3680343D0B27F
:1040B8000393D8F89050C5F30725013DA84207D8C7
:1040C80001A9FFF7C3FF421C09F101090C34DBE722
:1040D8006FF01502104605B0BDE8F08300ED00E072
:1040E800044B0522C3F89420BFF34F8FBFF36F8FA3
:1040F800704700BF00ED00E0BFF35F8F024B002266
:10410800C3F89420704700BF00ED00E010B5034CE1
:1041180001232278FFF7AEFF207010BDBB090220F3
:104128000B4A08B500231278FFF7A4FF10F1160F09
:1041380007D0084A0021D2F89030C3F307239842E9
:1041480000DB08BDC2F898000130C2F8A010F2E701
:10415800BB09022000ED00E05B4B2DE9F0435B4D0D
:1041680085B0D3F890302C68C3F307239C4200F243
:10417800A78000200C26FFF7BFFF84421AD1544EB7
:1041880068460027DFF840913470FDF77DF9514CFF
:104198008046514DB84514D1337800204A49D1F8AA
:1041A8009020C2F307229342C0F284800020FFF7D8
:1041B80097FF45E0696806FB0011FFF747FF0130EC
:1041C800DBE700984FEA071C00EB0711CB68234098
:1041D800B3F5000F4DD00AD8B3F5001F33D0B3F5AF
:1041E800800F3BD0B3F5801F13D00137D2E7B3F16E
:1041F800007F47D0B3F1805F4DD0B3F1807FF4D119
:1042080050F80C30886806F012F84A6840F0887058
:1042180009E050F80C30886806F009F840F088503A
:104228004A6840F4302003903078CDE90123D9F86A
:104238009030C3F30723013B984234D96FF015003F
:1042480005B0BDE8F08350F80C30886805F0EFFF42
:1042580040F088504A6840F40020E4E750F80C30F9
:10426800886805F0E4FF40F0C0604A6840F4003018
:10427800D9E750F80C30886805F0D9FF4A6840F053
:104288008270D0E750F80C30886805F0D0FF4A6893
:1042980040F48020C7E750F80C30886805F0C7FF65
:1042A8004A682843BFE701A9FFF7D0FE33780133F6
:1042B80033709AE7C1F898300133C1F8A0006EE76F
:1042C8004FF0FF30BCE700BF00ED00E090C20008EF
:1042D800BB0902200000F0FF00000211F0B587B012
:1042E80007460E4614460021102268461D4606F071
:1042F80075FF02232A4621468DF802306846044B92
:10430800CDE90476019303F0A9FA07B0F0BD00BF28
:1043180057A2000808B5024B1B689847002008BD43
:10432800C0080220034B044A1860937843F0020344
:1043380093707047C00802204400022006490748CD
:1043480021F00701C1F1005208B502F5002204F07E
:104358006EFC002008BD00BF07220220C40802200E
:104368002DE9F04F91B01D4606460C461A9B934620
:10437800002B00F04B82B146294619F8010B05F0D5
:1043880071FF0246207805F06DFF3F2A07465FFA65
:1043980080F821D006DC92B12A2A32D0D2B2424526
:1043A8002DD01EE05B2A7DD05C2AF7D1EB07F6D42E
:1043B800707806F1020905F055FFC2B2EFE7E8068A
:1043C80002D5B8F12F0F03D0B8F1000218BF0122AF
:1043D800104611B0BDE8F08F18B12F2803D1A907F6
:1043E8000DD50122F4E72E2809D16A0707D55C45C7
:1043F800F7D0AB0703D514F8013C2F2BF1D00134CB
:104408002CE0707805F02EFFC1B22A2918D02E2F83
:1044180009D16F0707D55C45E3D0AE0703D514F87B
:10442800013C2F2BDDD079B915F00202D0D0ED0672
:1044380000F1EE812F21204606F0E8FE021EC5E7B6
:10444800294619F8010FDDE72F2909D1A80707D553
:10445800204606F0DBFE04460028C2D04E468AE716
:104468001A9B05F0020A5F1E2646B8F1000FB8D065
:104478005A462B46214648460097FFF771FF0246E9
:104488000028A5D02946307805F0ECFE2F2804F145
:10449800010404D1BAF1000FA3D12646E8E75FFA78
:1044A80080F8E1E700289CD02F2848D1AA0798D4A3
:1044B8007378212B01D05E2B4FD1B31C05930123B8
:1044C80029463846069305F0CDFEC3B206460022BB
:1044D8000493A0F14103192B099394BF00230123EE
:1044E8000F93A0F120035E2B94BF002301230E93AA
:1044F800A0F16103192B089394BF002301230D93A6
:10450800A0F121035D2B0B9394BF002301230C938F
:10451800A0F13003092B079394BF002301230A93CA
:10452800059B0393039B1B785D2B1ED1059B039969
:104538008B4222D2069B01F1010993425EE72E28A5
:10454800B6D16B07B4D55C453FF44BAFA807AFD5E0
:1045580014F8013C2F2BABD143E70023CDF814907E
:10456800AEE70122CDF80CA0DCE7002B00F04C816F
:104578002F2B38D1A9073FF534AFDDF80CA0294619
:104588001AF8010B05F06EFE0399C3B249782D297C
:1045980040F0348103998978002900F02F815D2942
:1045A80000F02C8103985C2900F1020A04D1E90784
:1045B8005CBF014601F1030A29461AF8010B03936F
:1045C80005F050FE002800F01F8115F0080F039B2E
:1045D80040F00E810499C0B29942C3D3814298BF7A
:1045E80042F00102BEE703995C2B497805D1EB073D
:1045F800C3D4039B01330393BFE75B2BBDD13A2997
:10460800BBD1039B0020991C03468A4611F801CBB5
:10461800BCF1000F46D17F497F4FBB4208BF88429B
:1046280000F0DB80814277EB03015AD3A7F510270E
:104638006FF4817C79496744BB4208BF884200F027
:10464800BA80814277EB030137D3A7F50037744965
:10465800A7F50177BB4208BF884200F09A8001F1B4
:10466800C16107F57F4701F50031F137BB4208BF4B
:10467800884200F0988001F1E061DFF8A8C101F5F7
:104688000031634508BF88427FF477AF26F02003E6
:10469800413B192B7FF665AF079B092B98BF42F06A
:1046A80001025FE711F802ECBEF15D0FB3D01B0207
:1046B80043EA10634CEA0020A7E75B495B4FBB4223
:1046C80008BF884200F08E8007F1E047584907F597
:1046D8007437F6378B4208BFB8427FF44EAF0C9B55
:1046E8007CE05449544FBB4208BF88426BD081429A
:1046F80077EB030129D3A7F53F375049A7F5FC7796
:10470800BB4208BF88426FD007F1C6474C4907F53E
:10471800713707F57D778B4208BFB8427FF42DAF1C
:104728000B9B0E2B7FF61DAFA6F13A03062B7FF6E7
:1047380018AFA6F15B03052B7FF613AFA6F17B0339
:10474800032B98BF42F001020CE732493D4FBB42B0
:1047580008BF88424AD007F1F04701F180616FF441
:10476800E16CA7F5881701F500316744BB4208BF23
:1047780088427FF402AF079B092B7FF6F2AE099BB4
:10478800052B7FF6EEAE089B052B98BF42F0010281
:10479800E8E6099B192B7FF6E4AE089B192B98BF16
:1047A80042F00102DEE6202E3FF4DBAE092E08BF00
:1047B80042F00102D6E61F2E7FF7D3AE7F2E08BF48
:1047C80042F00102CEE6202E3FF4CBAEA6F109035B
:1047D800042B98BF42F00102C4E60D9B83F001034D
:1047E8001A43BFE60A9BF9E70E9BF7E70F9BF5E72D
:1047F800A0F14101192998BF2030EBE604999942AC
:1048080008BF42F00102ADE65B22C8E50322DFE5FE
:104818000A46DDE55D3A7265776F6C005D3A6C7249
:104828005D3A61686E6C61005D3A7469676964003D
:10483800617267005D3A6563617073005D3A746E1A
:104848006E757000707075000268064B1A604268D9
:10485800054B1A608268054B1A600269044B1A609E
:10486800704700BFD8080220D4080220D0080220D0
:10487800DC08022007B5084A92E80300CDE90001E8
:1048880006488268126822B16946904703B05DF80D
:1048980004FB6FF05700F9E718BC0008D4B400080F
:1048A8001F2809D8012303FA00F0044B5B699843D9
:1048B8000CBF01200020704700207047003C0140D9
:1048C80000F01F0201231F2803FA02F303D8034A4A
:1048D8000020536170476FF015007047003C01409D
:1048E800044B18440023013300F8012B8B42FADBF8
:1048F800704700BF040102202DE9F041054600265B
:104908000F4F4FF00108F4B26B78A34201D8BDE80D
:10491800F0812B781C442046FFF7C2FF68B120467F
:10492800FFF7CEFF57F834303BB107EBC40204F071
:104938001F04516808FA04F098470136E3E700BFFE
:10494800E0080220034660B1B0FA80F2C2F11F020B
:10495800D2B205498856054A11680B431360FFF720
:1049680037BAFF22F5E700BF04010220003C0140EE
:10497800024A136823EA000313607047003C0140B1
:10498800032921D8DFE801F0020C10190F4B9A68AF
:1049980022EA00029A60DA6822EA0002DA607047C6
:1049A8000A4B9A680243F5E7084BDA680243DA6073
:1049B8009A6822EA00029A607047044B9A68024398
:1049C8009A60DA681043D860704700BF003C014025
:1049D80030B5B0B1B0FA80F3C3F11F03DBB20B48B6
:1049E80050F833408C4204D100EBC3056D68954202
:1049F80005D044B940F8331000EBC30042600020F2
:104A080030BDFF23EBE76FF00F00F9E7E008022065
:104A180060B1B0FA80F3C3F11F03DBB2044A00218E
:104A280042F8331002EBC30251607047FF23F5E7E9
:104A3800E008022000F003020F23043292009340A2
:104A4800074A43EA9000C3B2023352F82320030C0A
:104A580093FAA3F302EA1040B3FA83F3D8407047FD
:104A68000038014038B5294B14460D4618680B88A4
:104A78008208C3F30B03142B17D8EBB1013B132B9C
:104A88001AD8DFE803F00B0A380A34242B1919194D
:104A98001919191919191922360B002020602B68C9
:104AA800B3F5805F2AD2002038BD382BF6D006D85F
:104AB80023F00403302BF1D06FF08500F4E7442B8A
:104AC8000AD0A82BEAD0402BF6D11046E6E700F032
:104AD800D1F8D823800858434008DFE700F0CAF827
:104AE800D823800858430923B0FBF3F0D6E70848D9
:104AF800D4E75000D2E74FF4FA40CFE7C3F31333BB
:104B08000133B0FBF3F02060CDE700BFF4000220D2
:104B180000127A00142808D8054BC34013F0010F7F
:104B28000CBF6FF08500002070476FF0850070475C
:104B3800EA001C0070B54A4C00F0D0F8494D2046F8
:104B480005F083FC01F080FBAB68474AC3F303130D
:104B5800D35C20FA03F613781C41A64202D2204601
:104B680001F0A0FB2B6843F480232B602B6843F4EF
:104B780080332B603B4B1A689103FCD55A6F42F087
:104B880001025A675A6F9207FCD59A6802F00C0224
:104B9800082A17D11A68950707D41A6842F0010243
:104BA8001A60304A13689807FCD52E4B9A6822F091
:104BB80003029A609A6812F00C0FFBD19A6822F0EF
:104BC800F0029A60274D2B6823F080732B602B68C6
:104BD8009901FCD4254AD2F8043823F44033C2F8AA
:104BE8000438D2F8043823F0706343F01063C2F835
:104BF800043800F043F82B6843F080732B60194B9E
:104C08001A689201FCD59A6822F0F0029A609A68B4
:104C180022F0030242F002029A609A6802F00C0243
:104C2800082AFAD1A64202D3204601F03BFB104BDA
:104C380000200B4A1A600B4B9A6822F4E05242F4A7
:104C4800A0529A609A6822F4604242F400429A6044
:104C5800D3F88C2022F08072C3F88C2070BD00BF7E
:104C680000E6DF0C00380240DAE3000800300240BA
:104C7800F40002200048704700127A00114B1249D4
:104C88005A681140114A0A4311495A605A6811403A
:104C9800104A0A435A601A6842F080721A60A3F5F3
:104CA800E4331A6842F480321A605A68D203FCD599
:104CB8001A6842F400321A60074A53689B03FCD50D
:104CC800704700BF003802400080BCFF0436400037
:104CD8000080BFF00436400900700040064B82B0E7
:104CE8001A6C42F080521A641B6C03F080530193D3
:104CF800019B02B0704700BF0038024008B5074862
:104D080005F05CFF38B10648FFF70CFB0448FCF7D8
:104D1800D3F9002008BD6FF01200FBE7B4B6000815
:104D28002D4D00080A2838B50446074D04D1AB6854
:104D38000D2128465B689847AB68E1B202485B687A
:104D48009847204638BD00BFB4B6000810B50369BF
:104D580040681C788C4229D341B35B7801249C407D
:104D6800A24223D2082B0FD1124B006803EB810318
:104D7800083013F8013C9B0003F03C03C15821F0B4
:104D8800FF010A43C25001E00C2B01D0002010BDE6
:104D9800084B006803EB8103083033F8023C9B00A2
:104DA80003F03C03C1586FF30B01EAE76FF01500FD
:104DB800EDE700BFFCC2000870B5036945680A78D2
:104DC8001878904229D342B34A7802F0FB000828A9
:104DD80002D06FF0850070BD5A7002240B78104A1B
:104DE800013B2E6852F823208B7802F010023068BD
:104DF800DB43944003F0010320EA04005B00934086
:104E080003433360887810F00200E2D12968012357
:104E18000C68934023430B60DDE76FF01500DAE779
:104E2800FCC2000837B545681048291D83681B680F
:104E38001BB96FF0040003B030BD98470446002842
:104E4800F7D1014601AAE86805F0CCFB002809DB88
:104E5800019B22461979186805F0D6FB002801DB6A
:104E68000020E8E7831CFBD0E5E700BFD4B40008C6
:104E78002DE9F843D0F80490904607460D46D9F836
:104E880008001E4605F049FAB8F5001F044616D179
:104E9800D9F808402846FFF7CDFD84420CD12946B1
:104EA80005F03BFA0446FFF763FD2046FFF7B0FD27
:104EB80000212046FFF764FD0020BDE8F883B8F51F
:104EC800800F20D0B6F1806F19D0B6F1C06F18D01E
:104ED800B6F1007F1AD102263A460F492046FFF75D
:104EE80077FDB0B9D9F80810284605F01BFA204616
:104EF8003146FFF745FD2046FFF724FDDCE7012694
:104F0800EAE70326E8E76FF08500D6E76FF01500BB
:104F1800D3E76FF00F00D0E7C1A500082DE9F043F3
:104F28000E468BB012F00801054617469846DDF884
:104F380048904CD1012205A805F0C7FEAB689C68D3
:104F48002CB96FF0570420460BB0BDE8F08303ABD3
:104F58003A463146284600931E4BA047044600288F
:104F6800F1D1AB68DB68002BEBD031462846984777
:104F780004460028E7D1DDE9142305A801F096FBD3
:104F880010F10B0F044612D1AB681B6913B13146FF
:104F980028469847AB68D3F80880B8F1000FD2D0FC
:104FA80000233A46314628460093C047CBE7099C80
:104FB800002CC8D1B8F1000F02D0039BC8F800300C
:104FC800B9F1000FBFD0049BC9F80030BBE76FF000
:104FD8008504B8E793A60008B1F5807F30B529D0DD
:104FE8001CD8102928D014D8012927D0042914BF87
:104FF8000823012314491830144D120CCC5CED5CC5
:1050080003230159AB40AA4021EA03031343035188
:1050180030BD402914BF08230323EBE7B1F5805FB7
:105028000ED0B1F5803F0DD0B1F5806F14BF0823C5
:105038000523DFE70423DDE70223DBE70023D9E7C5
:105048000623D7E70723D5E7D1E30008BFE3000825
:10505800B1F5807F10B525D018D8102924D010D8E4
:10506800012923D0042914BF08230123124C016A03
:10507800E45C0A23A340A24021EA0303134303622A
:1050880010BD402914BF08230323EFE7B1F5805F63
:105098000ED0B1F5803F0DD0B1F5806F14BF082355
:1050A8000523E3E70423E1E70223DFE70023DDE745
:1050B8000623DBE70723D9E7B6E3000838B54368DA
:1050C8004D1E1C6893F824300BBB012D21D8236892
:1050D800204623F0040323600F4B53F825309847EC
:1050E800E3680E49002023F0010351F82520E3600E
:1050F800236A23EA02030A4A52F825202362013A66
:10510800236A51F8222023EA0203236238BD032DC3
:10511800DCE76FF08500F9E738C400088CC40008A4
:10512800A4C40008B1F5807F10B526D019D810297D
:1051380025D011D8012924D0042914BF082301231C
:10514800134A1830134CD15CE45CF0234258A34056
:1051580022EA0303435010BD402914BF0823032348
:10516800EEE7B1F5805F0ED0B1F5803F0DD0B1F517
:10517800806F14BF08230523E2E70423E0E7022336
:10518800DEE70023DCE70623DAE70723D8E700BFDA
:10519800D1E30008BFE30008B1F5807F10B526D041
:1051A80019D8102925D011D8012924D0042914BFD1
:1051B80008230123134A1830134CD15CE45C0C23F8
:1051C8004258A34022EA0303435010BD402914BFAC
:1051D80008230323EEE7B1F5805F0ED0B1F5803FD9
:1051E8000DD0B1F5806F14BF08230523E2E704232F
:1051F800E0E70223DEE70023DCE70623DAE70723FC
:10520800D8E700BFD1E30008BFE300082DE9F0416B
:105218008E46194643680EF1FF3CBDF818701C68AD
:10522800BCF1050F27D8B4F1804F06D0A9488442B5
:1052380003D0B2F5803F00F28581E068860700F16F
:105248007E81E068450700F17A81E068000700F197
:105258007681E56815F0100540F071819E48BEF131
:10526800030F50F82C609CBF9C4850F82C5017F442
:10527800807F03D01DB96FF0150006E0354632B9BE
:10528800236A23EA050323620020BDE8F0819B68B6
:10529800002B40F0C58002F1FF3807F00107B5F593
:1052A800807F4FEA470700F0DB8000F2CD80102DA9
:1052B80000F0D88000F2C380012D00F0D580042DC5
:1052C80014BF08200120864A236A105C022282400B
:1052D8008740204623EA02033B432362814B53F86D
:1052E8002C309847C4F82C80236A35EA0303CBD0C6
:1052F8007D4B9C421AD0B4F1804F17D0A3F57C4364
:105308009C4213D003F580639C420FD003F5806361
:105318009C420BD003F578439C4207D003F57053A9
:105328009C4203D0A3F594339C420DD1A36823F487
:10533800803323F00703A360A36823F07003A360FE
:10534800A36823F08003A360B6F5807F00F0A380F4
:1053580000F29580102E00F0A08000F28B80012EC4
:1053680000F09D80042E14BF082301235F4F04F131
:1053780018015F48B5F5807F17F803C010F803E0FF
:105388005C4B51F80C2003FA0EF322EA03034FF0AA
:10539800600202FA0EF243EA020341F80C3000F010
:1053A800958000F28780102D00F092807DD8012D25
:1053B80000F0A480042D14BF08230123DFF838C1AE
:1053C800B6F5807F62681CF803C04FF4807303FA57
:1053D8000CF322EA03036360236A45EA03052562A6
:1053E800236843F08003236000F09F8000F29180DF
:1053F800102E00F09C8000F28780012E00F099802A
:10540800042E14BF08230123FA5CC05C08238D58BE
:1054180083402B438B50636943F00103636133E797
:10542800102B01D1013936E723F04000202802D0A3
:10543800402B40F0878049084FEA52082DE7402D5D
:1054480014BF082003203EE7B5F5805F0ED0B5F500
:10545800803F0DD0B5F5806F14BF0820052032E7D6
:10546800042030E702202EE700202CE706202AE758
:10547800072028E7402E14BF0823032376E7B6F554
:10548800805F0ED0B6F5803F0DD0B6F5806F14BFA3
:10549800082305236AE7042368E7022366E7002355
:1054A80064E7062362E7072360E7402D14BF08235B
:1054B800032383E7B5F5805F22D0B5F5803F21D07F
:1054C800B5F5806F14BF0823052377E7042375E734
:1054D800022373E7000C00408CC4000880C4000855
:1054E800B6E3000868C4000800000140D1E30008E2
:1054F800C8E3000873000100ADE3000800235DE77E
:1055080006235BE7072359E7402E14BF082303232C
:105518007AE7B6F5805F0ED0B6F5803F0DD0B6F5C8
:10552800806F14BF082305236EE704236CE702236A
:105538006AE7002368E7062366E7072364E76FF056
:105548000F00A2E66FF085009FE600BF2DE9F34744
:10555800DFF89C8107464668D8F808A0D0F8109074
:10556800DAF80030346871692BB96FF057052846AE
:1055780002B0BDE8F08740469847051EF7DBB369DF
:10558800012B40F2B1807169DAF818300831002B2C
:10559800EBD000224046984705460028E7D17169BC
:1055A800DAF80C300831002BDFD06A4640469847BD
:1055B80000280FDB009BD9E90101C9F80030836896
:1055C800DB6803B1984701AA0021F06905F00AF8E1
:1055D800002801DA0546CAE7019B002219791868F4
:1055E80005F012F80028F5DB7368A3620023E36274
:1055F800404B9C423AD0B4F1804F37D0A3F57C435E
:105608009C4233D003F580639C422FD003F580631E
:105618009C422BD003F578439C4227D003F5705366
:105628009C422AD1236823F440732360314B9C4267
:1056380042D1002323636368326923F07003134364
:1056480063602C4B9C4248D1636CF26823F0FF03E3
:1056580013436364636C43F400436364236838460C
:1056680043F001032360336A984780E72368B268F0
:1056780023F0700313432360D4E71F4B9C42D1D01F
:1056880003F580639C42CDD0A3F598339C42C9D0E2
:1056980003F580639C42C5D003F580639C42C1D06A
:1056A800164B9C42C7D003F580639C42C3D0336934
:1056B800B3B16FF085055AE7114B9C42B9D0B4F1EC
:1056C800804FB8D00F4B9C42B5D00F4B9C42B2D004
:1056D80003F580639C42E3D1ADE7094B9C42B3D00C
:1056E800F368002BBAD0E4E76FF015053FE700BF79
:1056F800D4B40008000001400044014000100040FC
:105708000004014000040040000800402DE9F74F64
:1057180004690746436894F820201D686AB32B691A
:10572800D90702D56FF001032B61284604F0D1FF99
:1057380098B16FF002032B616FF004032B616FF0D7
:1057480008032B616FF010032B6194F82030013BA4
:1057580084F8203003B0BDE8F08F284604F0C1FF7C
:105768000028E6D1284604F0C4FF0028E1D12846E5
:1057780004F0C7FF0028DCD1ECE72A6994F82480FC
:10578800D2070DD56FF001022A6193F82420002A70
:1057980050D094F82520012A4CD1032284F82520E2
:1057A80093F8243008F1FF36002B51D1DFF824910B
:1057B8002846DFF824A159F82630984700283DD01C
:1057C800DFF818B128465BF8263098475AF8263093
:1057D800DFF80CA1284603F1FF395BF82930984718
:1057E8005AF82630284698475AF8293060612846E2
:1057F8009847A061E369002B94F8233014BF6FF039
:1058080021060026002B5FD141463846FFF756FC9B
:10581800E568002D9ED094F8212002B1626994F8C1
:10582800223003B1A36921693846CDE900614146B8
:10583800A8478FE7E2690132E261B1E75AF82630FA
:105848002846013B59F8233098470028B8D1D1E7BA
:1058580094F82530022B16D11E4B284653F82630D3
:10586800984780B1012384F825306B6943F0010320
:105878006B611A4B284653F82630984794F8253020
:10588800002BB7D066E794F8253003F0FD03012B11
:10589800EFD1104B284653F8263098470028E8D017
:1058A8000023DFF83C90284684F825300A4B53F84B
:1058B8002630013B59F82330984759F82630A06123
:1058C800284698476061D0E70023E361032384F802
:1058D80025309DE728C40008A4C4000818C400089F
:1058E80058C4000870B542684E1E036992F8240037
:1058F8001468002844D1012E44D8E068800744D4B5
:10590800E068450741D4E06800073ED4E56815F033
:1059180010053AD1D86800283AD083F8241002211B
:10592800204683F8251092F82420DD6182F00102D8
:10593800520083F82020184B53F8263098476FF010
:10594800010320462361236843F004032360134BBB
:1059580053F8263098471249236A284651F82620DA
:105968001343104A52F826202362013A236A51F859
:10597800222013432362636943F00103636170BD0E
:10598800032EB9E76FF08500F9E76FF00F00F6E72F
:105998006FF01500F3E700BF18C4000848C40008FA
:1059A8008CC40008A4C400082DE9F84FD0F804807E
:1059B8000F460569013998F82460D8F80040002E90
:1059C80040F0AC80012900F2B480D4F80CC01CF07F
:1059D800020F40F0A880D4F80CC01CF0040F40F06F
:1059E800A280D4F80CC01CF0080F40F09C80D4F8BA
:1059F8000CC01CF0100F40F0968012F0060F00F05B
:105A08009580EEB94C4EB4421AD0B4F1804F17D0FD
:105A1800A6F57C46B44213D006F58066B4420FD092
:105A280006F58066B4420BD006F57846B44207D036
:105A380006F57056B44203D0A6F59436B44278D130
:105A4800EB600A9B3D4E2B61C2F3400385F8213081
:105A5800C2F3800385F82230C2F3C00385F82330EF
:105A680002F00105A368364A334052F821B0A3601A
:105A78004368D3F80090334B484653F821305946D1
:105A8800013B52F823A0FFF787FB59464846FFF72A
:105A980049FB4FF4803259464846FFF79DFA48467D
:105AA8006A005946FFF7D4FA5146FFF775FB51468D
:105AB8004846FFF737FB4FF4003251464846FFF798
:105AC8008BFA85F00102514648465200FFF7C0FAAA
